:04000000A0EF00F07D
:100008004682FACF10F0FBCF11F0D9CF12F0DACF39
:1000180013F0F3CF14F0F4CF15F0F6CF16F0F7CFB6
:1000280017F0F8CF18F0F5CF19F0F2AC1EEF00F08A
:1000380020EF00F08AEF00F00E01C0AD26EF00F0CF
:1000480028EF00F03FEF00F0C8AD2DEF00F02FEFE4
:1000580000F03FEF00F002D83DEF00F00500FA6E27
:100068000001FD51FD6EFE51FE6EFF51FF6EFA500C
:1000780012008AEF00F0C0AF44EF00F046EF00F046
:100088005DEF00F0C8AF4BEF00F04DEF00F05DEF13
:1000980000F002D85BEF00F00500FA6E0001FA519B
:1000A800FD6EFB51FE6EFC51FF6EFA5012008AEF96
:1000B80000F0C0A362EF00F064EF00F07AEF00F008
:1000C800C8A369EF00F06BEF00F07AEF00F002D8F8
:1000D80078EF00F00500FA6E2E50FD6E2F50FE6E80
:1000E8003050FF6EFA5012008AEF00F0C0A17FEF87
:1000F80000F081EF00F08AEF00F0C8A186EF00F071
:1001080088EF00F08AEF00F06BEF00F019C0F5FF00
:1001180018C0F8FF17C0F7FF16C0F6FF15C0F4FFA8
:1001280014C0F3FF13C0DAFF12C0D9FF11C0FBFFE0
:0C01380010C0FAFF46921100A8EF11F071
:100F000000BE2800422800322800581A004E1D005A
:100F1000B228003C21000C2900042900FC2800F420
:100F20002800EC2800E42800DC2800A6280026225F
:100F300000000000F822000000000000005228001D
:100F4000201B00602800000000C224008C1E0050FE
:100F5000506672616D4461746141727261795B25A2
:100F6000645D3A200048656C6C6F20776F726C642A
:100F7000210A0000B6C0CEF0B7C0CFF0B8C0D0F0A4
:100F8000B9C0D1F0BAC0D2F0BBC0D3F0BCC0D4F06D
:100F9000BDC0D5F00001D5BFD0EF07F0D3EF07F00B
:100FA000010ED4EF07F0000ECC6FCD6BCC51CD11FC
:100FB000D8B4DDEF07F0DFEF07F0EFEF07F0D51F54
:100FC000D41FD31FD21FD11FD01FCF1FCE6D000E35
:100FD000CF23D023D123D223D323D423D52334BE6C
:100FE000F4EF07F0F6EF07F0F7EF07F0359234BEB5
:100FF00004EF08F0345006E13304D8B002EF08F0F3
:1010000004EF08F00AEF08F0000EC96F010EC86F78
:101010000EEF08F033C0C8F034C0C9F031C0CAF0D8
:1010200032C0CBF0CC51CD11D8A419EF08F01BEF92
:1010300008F022EF08F035A420EF08F022EF08F0C6
:1010400025EF08F0CA07D8A0CB07000ED76F1F0EF8
:10105000D66F000E02011F6FABEF08F0D607D8A0C5
:10106000D707000ED625D96E020ED721DA6ECEC074
:101070001AF0CFC01BF0D0C01CF0D1C01DF0D2C000
:101080001EF0D3C01FF0D4C020F0D5C021F00A0E4E
:10109000226E000E236E000E246E000E256E000ED2
:1010A000266E000E276E000E286E000E296E92EC42
:1010B0000BF01AC0BEF01BC0BFF01CC0C0F01DC0BA
:1010C000C1F01EC0C2F01FC0C3F020C0C4F021C0D8
:1010D000C5F0BEC02CF0C0C02DF083EC12F02C5037
:1010E000300FDF6E0001C807D8A0C907CA07D8A013
:1010F000CB07CEC01AF0CFC01BF0D0C01CF0D1C0BF
:101100001DF0D2C01EF0D3C01FF0D4C020F0D5C057
:1011100021F00A0E226E000E236E000E246E000EC9
:10112000256E000E266E000E276E000E286E000E35
:10113000296E12EC0AF01AC0CEF01BC0CFF01CC012
:10114000D0F01DC0D1F01EC0D2F01FC0D3F020C01F
:10115000D4F021C0D5F00001D7BFB7EF08F0D751C8
:1011600008E1D605D8A0B7EF08F0B9EF08F0E9EF2D
:1011700008F0CE51CF11D011D111D211D311D41109
:10118000D511D8A4C6EF08F0C8EF08F02EEF08F08C
:10119000C9BFD5EF08F0C95106E1C805D8B0D3EFF3
:1011A00008F0D5EF08F02EEF08F0CBBFE0EF08F025
:1011B000CB5108E1CA05D8A0E0EF08F0E2EF08F053
:1011C000E9EF08F035B2E7EF08F0E9EF08F02EEFAD
:1011D00008F0CC51CD11D8A4F0EF08F0F2EF08F0F0
:1011E000F9EF08F035A4F7EF08F0F9EF08F017EF82
:1011F00009F0D607D8A0D707CC51CD11D8A403EF5A
:1012000009F005EF09F00BEF09F0000EC76F2B0E88
:10121000C66F0FEF09F0000EC76F2D0EC66F000EE0
:10122000D625D96E020ED721DA6EC6C0DFFFB4C054
:10123000AAF0B5C0ABF0000ED625AC6F020ED721D8
:10124000AD6FCAC0AEF0CBC0AFF0C8EC0CF0AAC016
:10125000B4F0ABC0B5F01200DAC0D9FFDBC0DAFFE2
:10126000DECFF6FFDDCFF7FF000EF86E0800F55079
:10127000250AD8A43EEF09F040EF09F0F4EF09F099
:10128000DAC0D9FFDBC0DAFFDE2A000EDD22000E55
:10129000326E000E316E31C035F032C036F0336838
:1012A0003468DAC0D9FFDBC0DAFFDECFF6FFDDCF6E
:1012B000F7FF000EF86E0800F550640AD8B463EF2B
:1012C00009F065EF09F079EF09F0DAC0D9FFDBC06A
:1012D000DAFFDECFF6FFDDCFF7FF000EF86E080075
:1012E000F550690AD8A477EF09F079EF09F0BAEF61
:1012F00009F0DAC0D9FFDBC0DAFFDE2A000EDD22FA
:10130000DCC0D9FFDDC0DAFFDFCFDEF0020EDE2663
:10131000DFCFDFF0000EDD22DEC0D9FFDFC0DAFF55
:10132000DECFE0F0DDCFE1F00001000EE1BFFF0E07
:10133000E26FE36FE46FE56FE66FE76FD8C0B4F07C
:10134000D9C0B5F0E0C0B6F0E1C0B7F0E2C0B8F087
:10135000E3C0B9F0E4C0BAF0E5C0BBF0E6C0BCF051
:10136000E7C0BDF0BAEC07F0B4C0D8F0B5C0D9F012
:1013700011EF0AF0DAC0D9FFDBC0DAFFDECFF6FFEB
:10138000DDCFF7FF000EF86E0800F550250AD8A44F
:10139000CCEF09F0CEEF09F0E6EF09F0DAC0D9FFA3
:1013A000DBC0DAFFDE2A000EDD22000E1D6E250EE8
:1013B0001C6ED8C01EF0D9C01FF0FBEC0EF0000E62
:1013C0000001D96F010ED86F11EF0AF0DAC0D9FF12
:1013D000DBC0DAFFDE2A000EDD22000E0001D96F2D
:1013E000000ED86F11EF0AF0DAC0D9FFDBC0DAFFC8
:1013F000DECFF6FFDDCFF7FF000EF86E0800F550E8
:101400001C6E1D6AD8C01EF0D9C01FF0FBEC0EF098
:10141000DAC0D9FFDBC0DAFFDE2A000EDD22DFEF03
:1014200009F01200000E0001AB6F29BE1CEF0AF09C
:101430001AEF0AF02EEF0AF0291E281E271E261E7C
:10144000251E241E231E226C000E23222422252268
:101450002622272228222922010EAB6F21BE35EF3A
:101460000AF033EF0AF047EF0AF0211E201E1F1E7C
:101470001E1E1D1E1C1E1B1E1A6C000E1B221C2273
:101480001D221E221F2220222122010EAB1B20EE34
:10149000ACF0070EDE6AE806FDE2225023102410AD
:1014A00025102610271028102910D8B45AEF0AF05A
:1014B0005CEF0AF0AEEF0AF0010EAA6F6AEF0AF0D5
:1014C000D890223623362436253626362736283637
:1014D0002936AA2B29AE6FEF0AF071EF0AF060EF00
:1014E0000AF0D890AC37AD37AE37AF37B037B13739
:1014F000B237B33722501A5C23501B5824501C5863
:1015000025501D5826501E5827501F582850205827
:1015100029502158D8A08FEF0AF091EF0AF0A2EFDE
:101520000AF022501A5E23501B5A24501C5A255090
:101530001D5A26501E5A27501F5A2850205A2950EB
:10154000215AAC81D89029322832273226322532CE
:10155000243223322232AA2F71EF0AF0AB51D8B4D1
:10156000B4EF0AF0B6EF0AF0C6EF0AF0B31FB21FED
:10157000B11FB01FAF1FAE1FAD1FAC6D000EAD236E
:10158000AE23AF23B023B123B223B323ACC01AF0F0
:10159000ADC01BF0AEC01CF0AFC01DF0B0C01EF05F
:1015A000B1C01FF0B2C020F0B3C021F012001AC0C9
:1015B00024F01BC025F01E501F10D8A4E2EF0AF043
:1015C000E4EF0AF0E6EF0AF091EF0BF024C0D9FF48
:1015D00025C0DAFF1CC0DFFF1E502424206E1F50E0
:1015E0002520216EFF0E2024D96EFF0E2120DA6EF9
:1015F0001CC0DFFF1F5007E1030E1E5CD8B003EFD5
:101600000BF005EF0BF007EF0BF091EF0BF020EE76
:1016100001F02450D9262550DA221CC0DFFF20EE2D
:1016200002F02450D9262550DA221CC0DFFF1E50BC
:101630002424206E1F502520216EFE0E2024D96EFA
:10164000FF0E2120DA6E1CC0DFFF1E502424206E06
:101650001F502520216EFD0E2024D96EFF0E212063
:10166000DA6E1CC0DFFF1F5007E1070E1E5CD8B00A
:101670003CEF0BF03EEF0BF040EF0BF091EF0BF077
:1016800020EE03F02450D9262550DA221CC0DFFFBB
:101690001E502424206E1F502520216EFC0E202475
:1016A000D96EFF0E2120DA6E1CC0DFFF1F5007E14C
:1016B000090E1E5CD8B05FEF0BF061EF0BF063EF2B
:1016C0000BF091EF0BF024C020F025C021F0201E7C
:1016D000211E204A212A030E2014226E236A225042
:1016E00024262350252222501E5E23501F5AFC0E12
:1016F0001E16FF0E1F1688EF0BF024C0D9FF25C061
:10170000DAFF1CC0DFFF1E06D8A01F06244A252AC8
:101710001E501F10D8A48FEF0BF091EF0BF07DEF50
:101720000BF01200000E2B6E21BE9BEF0BF099EF19
:101730000BF0ADEF0BF0211E201E1F1E1E1E1D1EE6
:101740001C1E1B1E1A6C000E1B221C221D221E2298
:101750001F2220222122010E2B6E29BEB4EF0BF096
:10176000B2EF0BF0C4EF0BF0291E281E271E261E19
:10177000251E241E231E226C000E23222422252235
:101780002622272228222922225023102410251025
:101790002610271028102910D8B4D1EF0BF0D3EF62
:1017A0000BF01BEF0CF0010E2A6EE1EF0BF0D8905E
:1017B000223623362436253626362736283629364D
:1017C0002A2A29AEE6EF0BF0E8EF0BF0D7EF0BF08B
:1017D00022501A5C23501B5824501C5825501D5869
:1017E00026501E5827501F5828502058295021583D
:1017F000D8A0FDEF0BF0FFEF0BF00FEF0CF0225035
:101800001A5E23501B5A24501C5A25501D5A26502C
:101810001E5A27501F5A2850205A2950215AD89012
:1018200029322832273226322532243223322232FC
:101830002A2EE8EF0BF02B50D8B421EF0CF023EF59
:101840000CF033EF0CF0211E201E1F1E1E1E1D1E4D
:101850001C1E1B1E1A6C000E1B221C221D221E2287
:101860001F22202221221AC01AF01BC01BF01CC00C
:101870001CF01DC01DF01EC01EF01FC01FF020C0B8
:1018800020F021C021F01200ECEC13F0F28EF28C6B
:10189000650E0101006F0F0E016F55EC13F0000E85
:1018A0000101096F000E086F08B159EF0CF05BEFF2
:1018B0000CF065EF0CF0000E0825D96E040E09211E
:1018C000DA6EAA0EDF6E6DEF0CF0000E0825D96EF1
:1018D000040E0921DA6EBB0EDF6E084B092B0905D9
:1018E000D8A075EF0CF077EF0CF054EF0CF0000E71
:1018F000276E000E266E000E286E040E296E010E55
:101900002B6E000E2A6E4EEC0EF0000E1A6E040EB8
:101910001B6E000E1D6E000E1C6E010E1F6E000E63
:101920001E6ED7EC0AF0000E266E000E256E000E1D
:10193000276E040E286E010E2A6E000E296E8EECA4
:101940000FF0000E0101076F000E066F510E006FC1
:101950000F0E016F000E0625D96E040E0721DA6EF8
:10196000DF500001F06FF0510101026F036B55EC85
:1019700013F00101064B072B0705D8A0C2EF0CF0AE
:10198000C4EF0CF0A6EF0CF0C4EF0CF0A0EF00F0E9
:1019900035A0CDEF0CF0CFEF0CF0D9EF0CF0ACC0D0
:1019A00025F0ADC026F0AAC027F0ABC028F0FBECB4
:1019B00011F00001AFBFDFEF0CF0E1EF0CF0E7EF4B
:1019C0000CF0AEC0B2F0AFC0B3F0EBEF0CF0000E15
:1019D000B36F000EB26F000EB16F000EB06FFEEF6E
:1019E0000CF0000E1D6E200E1C6EAAC01EF0ABC0C7
:1019F0001FF0FBEC0EF00001B04BB12BB251B05D0B
:101A0000B151800A2C6EB351800A2C58D8A00BEF2C
:101A10000DF00DEF0DF0F1EF0CF035B012EF0DF011
:101A200014EF0DF01EEF0DF0ACC025F0ADC026F0A8
:101A3000AAC027F0ABC028F0FBEC11F0ACC01AF044
:101A4000ADC01BF0C4EC12F00001B2511A24AA6F11
:101A5000B3511B20AB6F12000FEC14F00009D8B487
:101A600034EF0DF036EF0DF073EF0DF044EF0DF0A5
:101A700086EC14F08FEF0DF082EC14F08FEF0DF088
:101A80007AEC14F08FEF0DF078C00CF079C00DF007
:101A900020EE69F002D857EF0DF00500FA6EDE5027
:101AA000FD6EDE50FE6EDE50FF6EFA5012000E6EBE
:101AB0000F6A0F50000AD8B460EF0DF040EF0DF040
:101AC0000E50010AD8B440EF0DF0030AD8B438EF35
:101AD0000DF0010AD8B43CEF0DF0070AD8B440EF7E
:101AE0000DF040EF0DF00001899183C0D9FF84C053
:101AF000DAFF834B842BDF508AEC14F0000185075A
:101B0000D8A0860785518611D8A489EF0DF08BEFF8
:101B10000DF08EEF0DF0060E8FEF0DF0030E12009C
:101B20008A0E4224D96EDA6A000EDA22000EDF6EC7
:101B30000E0198A59EEF0DF0A0EF0DF0B5EF0DF0A2
:101B40008A0E4224D96EDA6A000EDA220001DF82A0
:101B500002D8B5EF0DF00500FA6EF751FD6EF851A1
:101B6000FE6EF951FF6EFA5012000E0198A3BBEF02
:101B70000DF0BDEF0DF0D2EF0DF08A0E4224D96EBC
:101B8000DA6A000EDA220001DF8402D8D2EF0DF00B
:101B90000500FA6EF451FD6EF551FE6EF651FF6EC2
:101BA000FA5012008A0E4224D96EDA6A000EDA2246
:101BB000DF50D8B4DEEF0DF0E0EF0DF0F0EF0DF0F8
:101BC00002D8EEEF0DF00500FA6E0001F151FD6E46
:101BD000F251FE6EF351FF6EFA501200F2EF0DF06B
:101BE0006AEC13F012001D6E010E1E6E000189B525
:101BF000FCEF0DF0FEEF0DF04CEF0EF01DC082F08B
:101C00008993898589910E0E876F010E816FF40E7D
:101C1000806F8987720E606F290E616F000E626F90
:101C2000000E726F000E736F720E636F290E646F79
:101C3000000E656F000E746F000E756F720E666F8A
:101C4000290E676F000E686F000E766F000E776FBB
:101C5000720E696F290E6A6F000E6B6F000E786F3F
:101C6000000E796F6E0E6C6F290E6D6F000E6E6F29
:101C7000000E7A6F000E7B6F360E1A6E290E1B6EE9
:101C8000000E1C6E4CEC14F098EC14F0A3EC13F066
:101C900092EC14F0000E1E6E1E501200000E1A6E12
:101CA000050E1B6E000E1D6E000E1C6E010E1F6ECB
:101CB000020E1E6ED7EC0AF026C02CF027C02DF0C5
:101CC0002DC02CF02D6A2CC000F525EE01F026C0A9
:101CD000DFFF020E1A6E050E1B6E28C01CF029C015
:101CE0001DF02AC01EF02BC01FF0D3EC11F0500ED7
:101CF000F3EC0DF00009D8B480EF0EF082EF0EF097
:101D000077EF0EF0000E1A6E050E1B6E020E2A24DF
:101D10001C6E000E2B201D6E7FEC13F0000E206E4B
:101D2000000E216E000E226E000E236E000E246E39
:101D3000D0EC13F06AEC14F03FEC13F0E806D8B4E2
:101D4000A4EF0EF0A6EF0EF09CEF0EF01200B3EC35
:101D500014F083C0D9FF84C0DAFFDF6E0001834B2B
:101D6000842B8507D8A0860785518611D8B4BBEF90
:101D70000EF0BDEF0EF0C2EF0EF0A4EC14F0050E65
:101D8000FAEF0EF08987CDEF0EF06EEC14F0FAEF5B
:101D90000EF072EC14F0FAEF0EF072C00CF073C09B
:101DA0000DF002D8DEEF0EF00500FA6E6051FD6E08
:101DB0006151FE6E6251FF6EFA5012000E6E0F6A94
:101DC0000F50000AD8B4E7EF0EF0C9EF0EF00E5036
:101DD000010AD8B4C9EF0EF0030AD8B4C5EF0EF06B
:101DE000010AD8B4C5EF0EF0070AD8B4C9EF0EF057
:101DF000C9EF0EF012001E501F10D8B402EF0FF002
:101E000004EF0FF00DEF0FF01E501F10D8A40BEFD2
:101E10000FF00DEF0FF012EF0FF01C5065EC14F007
:101E200045EF0FF020EE09F01E50D9261F50DA22A0
:101E3000DE50DE10D8B41FEF0FF021EF0FF03CEFB3
:101E40000FF020EE09F01E50D9261F50DA2210EEB6
:101E500003F01E50E1261F50E222DE50E65CE65001
:101E6000800A246EDE50800A2458D8B03AEF0FF072
:101E70003CEF0FF045EF0FF020EE03F01E50D92697
:101E80001F50DA22DE2A000EDD2212000E01C09F52
:101E9000200E1A6E1B0E1B6E000E1C6E30EC14F022
:101EA0000E01C09DC20E1A6E240E1B6E000E1C6E1B
:101EB00029EC14F0080E0E019A6F800E986F240E14
:101EC000996F670E966F000E976F7E0E1A6E290E31
:101ED0001B6E000E1C6E3EEC14F01C0E1A6E290ECA
:101EE0001B6E000E1C6E37EC14F0540E1A6E290E89
:101EF0001B6E000E1C6E45EC14F0000E3F6E000EC3
:101F0000446E000E436E080E456E000E426E000ECB
:101F1000416E000E406E0E01C08F120027C0AEF061
:101F200028C0AFF029C0ACF02AC0ADF0500EF3ECE1
:101F30000DF00009D8B49FEF0FF0A1EF0FF096EF6E
:101F40000FF026500001AA6F25C0ABF03A0E206EAC
:101F5000240E216E000E226EAC0E236E000E246E37
:101F6000C2EC13F0AA0E1A6E000E1B6E000E1D6E50
:101F7000020E1C6E7FEC13F0000E206E000E216E20
:101F8000000E226E000E236E000E246ED0EC13F0B5
:101F90006AEC14F03FEC13F0E806D8B4D2EF0FF07F
:101FA000D4EF0FF0CAEF0FF01200000E866E000E95
:101FB000856E000E826E000E836E000E846E070E1C
:101FC0008B6E876888688968FE0E8A6E0F012169AA
:101FD000E70E1C6F1469070E296F0C69000E206F45
:101FE000000E286F000E136F000E0B6F000E1B6F9C
:101FF000000E276F000E0A6F000E126F000E1A6F90
:10200000000E1F6F0969116919691E69070E266F95
:102010000869106918691D690F0E256F130E0E01EE
:10202000B26F0F0EF56F100EF66F0B0EFA6F140EE7
:10203000B36F12001F6E1A501B101C10D8B423EF80
:1020400010F025EF10F041EF10F01F50030D600E5F
:10205000F324D96E000EF420DA6E1AC0DEFF1BC026
:10206000DEFF1CC0DEFF1F50020D720EF324D96E7E
:10207000000EF420DA6E1DC0DEFF1EC0DDFF5BEF38
:1020800010F01F50030D600EF324D96E000EF420E3
:10209000DA6E720EDE6E290EDE6E000EDE6E1F50E0
:1020A000020D720EF324D96E000EF420DA6E000ECB
:1020B000DE6E000EDD6E1200066E0150021003107F
:1020C000D8B465EF10F067EF10F083EF10F0065012
:1020D000030D600EF324D96E000EF420DA6E01C0F9
:1020E000DEFF02C0DEFF03C0DEFF0650020D720EEF
:1020F000F324D96E000EF420DA6E04C0DEFF05C0B2
:10210000DDFF9DEF10F00650030D600EF324D96E35
:10211000000EF420DA6E720EDE6E290EDE6E000EF8
:10212000DE6E0650020D720EF324D96E000EF420FE
:10213000DA6E000EDE6E000EDD6E12000001898781
:10214000AFEF10F07EEC14F0DCEF10F0A1EC14F027
:10215000030EDCEF10F07AEC14F0DCEF10F072C03C
:102160000CF073C00DF002D8C0EF10F00500FA6E4D
:102170006051FD6E6151FE6E6251FF6EFA501200A9
:102180000E6E0F6A0F50000AD8B4C9EF10F0ABEF13
:1021900010F00E50010AD8B4ABEF10F0030AD8B417
:1021A000A2EF10F0010AD8B4A2EF10F0070AD8B4D9
:1021B000A6EF10F0ABEF10F012009EEC14F000014F
:1021C00089A1E5EF10F0E7EF10F0F4EF10F00FEC5D
:1021D00014F00009D8B4EFEF10F0F1EF10F0F4EFC5
:1021E00010F00F0E0001876F00018751030D010EE3
:1021F000F324F66E0F0EF420F76EF86A000EF82244
:1022000002D810EF11F00500FA6E0900F550FD6ECE
:102210000900F550FE6E0900F550FF6EFA501200ED
:102220000001876F120000018991020E886F21EF73
:1022300011F07EEC14F048EF11F07AEC14F048EF56
:1022400011F076C00CF077C00DF020EE66F002D8E9
:1022500034EF11F00500FA6EDE50FD6EDE50FE6EBA
:10226000DE50FF6EFA5012000E6E0F6A0F50000A19
:10227000D8B43DEF11F01DEF11F00E50020AD8B4A2
:1022800019EF11F0010AD8B419EF11F01DEF11F098
:102290001200EAC0EEF0EBC0EFF0000E0001A76FF5
:1022A000000EA66F67EF11F0E8C0D8F0E9C0D9F0D2
:1022B000EE0EDA6F000EDB6FECC0DCF0EDC0DDF08F
:1022C0002CEC09F00001D851A627D951A723EEC064
:1022D000F6FFEFC0F7FF000EF86E0800F55000099A
:1022E000D8A475EF11F077EF11F054EF11F0A6C0FC
:1022F000E8F0A7C0E9F012001A6E4550D8B483EF99
:1023000011F085EF11F07DEF11F00E01C0BD8BEFE4
:1023100011F08DEF11F091EF11F01AC095FEA6EFBC
:1023200011F0C09D9A0E4424D96EDA6A000EDA22AA
:102330001AC0DFFF442A070E4464A1EF11F0A3EF97
:1023400011F0A5EF11F0000E446E4506C08D12008D
:1023500005EE00F011EE02F0EE6AE550E150FCE10E
:10236000E250FAE103EE00F011EE00F0EE6AE55003
:10237000E150FCE1E250FAE102EE00F0200EEE6ADC
:10238000E806FDE100EE60F04A0EEE6AE806FDE1C7
:1023900000EE2EF0170EEE6AE806FDE1469046923A
:1023A000000144EF0CF01CC023F01DC024F01AC043
:1023B00021F01BC022F0EDEF11F023C0D9FF24C0A3
:1023C000DAFFDF50206E234A242A21C0D9FF22C021
:1023D000DAFF20C0DFFF214A222A1E06D8A01F06EE
:1023E0001E2806E11F28D8A4F8EF11F0FAEF11F02B
:1023F000DDEF11F01200000E2B6E000E2A6E0CEFB6
:1024000012F029C01CF01D6A27C01EF028C01FF062
:10241000FBEC0EF02A4A2B2A2A502524D96E2B5089
:102420002620DA6EDF50296E2950D8A41AEF12F058
:102430001CEF12F001EF12F0120020EE02F00C502F
:10244000D9260D50DA22DECF01F0DDCF02F00CC02C
:10245000D9FF0DC0DAFFDECF03F0DDCF04F091EC41
:1024600013F0000E076E000E086E000E096E000ECF
:102470000A6E000E0B6EDEEC13F0020E120020EE60
:1024800002F00C50D9260D50DA22DECF01F0DDCF5C
:1024900002F00CC0D9FF0DC0DAFFDECF03F0DDCFB4
:1024A00004F091EC13F0000E076E000E086E000EA3
:1024B000096E000E0A6E000E0B6EDEEC13F0020EBB
:1024C0001200080E456067EF12F069EF12F080EF1E
:1024D00012F09A0E4324D96EDA6A000EDA22DF5027
:1024E0000E01956F432A070E436479EF12F07BEFDC
:1024F00012F07DEF12F0000E436E452A82EF12F0CB
:102500000E01C09D12002DBE90EF12F02D5006E17D
:102510002C04D8B08EEF12F090EF12F09FEF12F073
:102520002CC0AAF02DC0ABF00001AA1FAB1FAA4B14
:10253000AB2BAAC02CF0ABC02DF0A3EF12F02CC037
:102540002CF02DC02DF012001A6E010E1B6E000132
:1025500089B3ADEF12F0AFEF12F0C2EF12F0898342
:10256000000E1B6E1A50D8B4B8EF12F0BAEF12F08A
:10257000BEEF12F0010E876FC0EF12F0020E876FF0
:10258000AFEC14F01B5012001AC01CF01BC01DF061
:10259000CCEF12F01A4A1B2A1AC0D9FF1BC0DAFF6F
:1025A000DF50D8A4D6EF12F0D8EF12F0CAEF12F035
:1025B0001C501A5C1A6E1D501B581B6E12000CC06A
:1025C00001F00DC002F0000E046E010E036E91ECDE
:1025D00013F0000E076E000E086E000E096E000E5E
:1025E0000A6E000E0B6EDEEC13F0020E12000CC031
:1025F00001F00DC002F0000E046E010E036E91ECAE
:1026000013F0000E076E000E086E000E096E000E2D
:102610000A6E000E0B6EDEEC13F0020E12000CC000
:1026200001F00DC002F0000E046E010E036E91EC7D
:1026300013F0000E076E000E086E000E096E000EFD
:102640000A6E000E0B6EDEEC13F0040E12000CC0CE
:1026500001F00DC002F0000E046E010E036E91EC4D
:1026600013F0000E076E000E086E000E096E000ECD
:102670000A6E000E0B6EDEEC13F0040E1200010E5B
:102680001A6E000189B347EF13F049EF13F053EFCF
:1026900013F08995826998EC14F095EC14F0B1EC84
:1026A00014F088C01AF01A501200020E0101046FD3
:1026B000010E056F000E0001E86F000EE96F00C10A
:1026C000EAF001C1EBF0040EEC6F010EED6F49EC86
:1026D00011F01200920E4224D96EDA6A000EDA224C
:1026E00094CEDFFF422A070E426479EF13F07BEFAE
:1026F00013F07DEF13F0000E426E402A120000012D
:1027000089A785EF13F087EF13F090EF13F01AC04D
:1027100083F01BC084F01CC085F01DC086F0899733
:102720001200000189A797EF13F099EF13F0A2EFC1
:1027300013F001C083F002C084F003C085F004C030
:1027400086F08997120095BAA8EF13F0AAEF13F05C
:10275000B3EF13F0000E946E080E956E000E966E99
:10276000090E926E958A1200000E0E01DC6F000EAB
:10277000DD6F000EDE6F000EDF6F000EE06F000EEB
:10278000E16F120020C01AF021C01BF022C01CF023
:1027900023C01DF024C01EF0000E1AEC10F0120031
:1027A00020C01AF021C01BF022C01CF023C01DF075
:1027B00024C01EF0020E1AEC10F0120007C001F047
:1027C00008C002F009C003F00AC004F00BC005F015
:1027D000000E5CEC10F01200ADEC14F0B4EC13F051
:1027E00005EC14F0D5EC0FF0F9EC13F046EC0FF01B
:1027F0001200600E0E01D36F000ED56F000ED76F62
:10280000020ED96F000ED86F1200000E946E080EE3
:10281000956E000E966E090E926E959A120096BCF9
:1028200014EF14F017EF14F0010E18EF14F0000E6F
:10283000120000018981825182258AEC14F0030E76
:10284000120000018981D88082358AEC14F0050ECF
:1028500012001AC0FDF01BC0FEF01CC0FFF01200F9
:102860001AC0FAF01BC0FBF01CC0FCF012001AC02A
:10287000F4F01BC0F5F01CC0F6F012001AC0F7F01F
:102880001BC0F8F01CC0F9F012001AC0F1F01BC018
:10289000F2F01CC0F3F012001AC02EF01BC02FF093
:1028A0001CC030F0120000018993000E886F0E0EDC
:1028B000120000018991B5EC14F0040E1200000121
:1028C0008993000E886F0E0E12001B6E1B507CEC5D
:1028D00011F01200000EA4EC12F01200A7EC14F09C
:1028E000090E1200A7EC14F00A0E1200A4EC14F06A
:1028F000050E1200BBEC14F0000E1200BDEC14F03B
:10290000010E1200BDEC14F0020E1200BDEC14F02A
:10291000010E1200016E01C091FF12000E01989984
:10292000988912000E01C08112000E01C0911200A0
:102930000E01C8911200DDEC10F012000E01C891DA
:1029400012000E01C8811200969A96881200968A8B
:10295000968812006AEC13F01200F29A1200968028
:102960001200959A12009150120096861200050EE0
:102970001200010E120096841200968212001200BC
:020000040020DA
:10000000FFFFFFFFFFFFFFFFFFFFFFFFFFFFFFFF00
:10001000FFFFFFFFFFFFFFFFFFFFFFFFFFFFFFFFF0
:10002000FFFFFFFFFFFFFFFFFFFFFFFFFFFFFFFFE0
:10003000FFFFFFFFFFFFFFFFFFFFFFFFFFFFFFFFD0
:10004000FFFFFFFFFFFFFFFFFFFFFFFFFFFFFFFFC0
:10005000FFFFFFFFFFFFFFFFFFFFFFFFFFFFFFFFB0
:10006000FFFFFFFFFFFFFFFFFFFFFFFFFFFFFFFFA0
:10007000FFFFFFFFFFFFFFFFFFFFFFFFFFFFFFFF90
:10008000FFFFFFFFFFFFFFFFFFFFFFFFFFFFFFFF80
:10009000FFFFFFFFFFFFFFFFFFFFFFFFFFFFFFFF70
:1000A000FFFFFFFFFFFFFFFFFFFFFFFFFFFFFFFF60
:1000B000FFFFFFFFFFFFFFFFFFFFFFFFFFFFFFFF50
:1000C000FFFFFFFFFFFFFFFFFFFFFFFFFFFFFFFF40
:1000D000FFFFFFFFFFFFFFFFFFFFFFFFFFFFFFFF30
:1000E000FFFFFFFFFFFFFFFFFFFFFFFFFFFFFFFF20
:1000F000FFFFFFFFFFFFFFFFFFFFFFFFFFFFFFFF10
:020000040030CA
:0C000000ECFFFFFF9FFFFFFFFFFFFFFF73
:00000001FF
